:020000040800F2
:10000000FCFF0020B11B0000951B0000951B0000A9
:10001000951B0000951B0000951B0000951B000020
:10002000951B0000951B0000951B0000951B000010
:10003000951B0000951B0000951B0000951B000000
:10004000951B0000951B0000951B0000951B0000F0
:10005000951B0000951B0000951B0000951B0000E0
:10006000951B0000951B0000951B0000951B0000D0
:10007000951B0000951B0000951B0000951B0000C0
:10008000951B0000951B0000951B0000951B0000B0
:10009000951B0000951B0000951B0000951B0000A0
:1000A000951B0000951B0000951B0000951B000090
:1000B000951B0000951B0000951B0000951B000080
:1000C000951B0000951B0000951B0000951B000070
:1000D000951B0000951B0000951B0000951B000060
:1000E000951B0000951B0000951B0000951B000050
:1000F000951B0000951B0000951B0000951B000040
:10010000951B0000951B0000951B0000951B00002F
:10011000951B0000951B0000951B0000951B00001F
:10012000951B0000951B0000951B0000951B00000F
:10013000951B0000951B0000951B0000951B0000FF
:10014000951B0000951B0000951B0000951B0000EF
:1001500001480068704700BFC800002083B0CDF898
:1001600000E000F0FF031A09104603F00F021346E7
:1001700014E0194A02921FE0184A02921CE0184A41
:10018000029219E0174A029216E0174A029213E00F
:10019000164A029210E0164A02920DE00028E8D0BA
:1001A0000128E9D00228EAD00328EBD00428ECD0BB
:1001B0000528EDD00628EED0012212B29A40ADF803
:1001C000042002980A46BDF8041000F0ADF8DDF8EE
:1001D00000E003B0704700BF00080140000C014080
:1001E000001001400014014000180140001C0140B3
:1001F0000020014081B0194900EA010108460022AF
:100200000EE0042022E0082020E010201EE0202044
:100210001CE040201AE0802018E040F2001015E0B9
:100220000F498842EDD00F498842ECD00E498842F0
:10023000EBD00E498842EAD00D498842E9D00D49F9
:100240008842E8D00C498842E7D010460B4909683B
:1002500041EA000209490A6001B0704700FCFFFF53
:1002600000080140000C0140001001400014014052
:1002700000180140001C01400020014018100240FD
:1002800082B0CDF800E0034619460191FFF760FF08
:1002900040F2E83100FB01F201990A601F49097838
:1002A000C1F30311C8B21E4909180878C0B21A1D5B
:1002B0001968C140116019490988C1F3022188B247
:1002C000174909180878C0B203F20802191D096815
:1002D000C140116011490988C1F3C22188B2104997
:1002E00009180878C0B203F20C02191D0968C14050
:1002F00011600A490988C1F3813188B20949091896
:100300000978C8B203F2100203F20C010968B1FBCC
:10031000F0F11160DDF800E002B070470410024017
:10032000741F0000C21A000081B0CDF800E08CB24A
:100330001546774B00EA03031E461846FFF75AFF9F
:10034000B4F1FF0F0CD1734B9D4203D14FF0333307
:100350003360D9E0422D03D14FF044333360D3E012
:100360004FF6FF739C4214D16A4B9D4207D14FF068
:1003700033333360341D4FF033332360C4E0422DF8
:1003800007D14FF044333360341D4FF044332360C2
:10039000BAE00021002005F001030BB100211DE0AF
:1003A00005F0020333B105F4C0730BB1082100E07E
:1003B000042113E005F0040333B105F020030BB171
:1003C000042100E0002109E005F0080333B105F045
:1003D00020030BB10C2100E00821FFE74E4B05EA9A
:1003E00003030BB1032009E005F400730BB10220F5
:1003F00004E005F480630BB10120FFE705F00C0376
:100400000BB10143FFE704F0FF039BB2002B3BD08D
:10041000376800201FFA84F832462E4608282CD26E
:100420004FF0010303FA00F408EA0403A34222D1C7
:1004300085004FF00F03AB40DB4307EA030401FAEA
:1004400005F344EA03031D4606F48173B3F5817F87
:1004500005D102F214044FF001038340236006F03B
:100460008203822B05D102F210044FF00103834076
:1004700023602F46FFE7401CD0E717601FFA88F083
:100480000F463146164602E00F462946A0B2B0F1AB
:10049000FF0F39D9331DD3F800800022082A30D24B
:1004A00002F208044FF0010303FA04F400EA040323
:1004B000A34224D195004FF00F03AB40DB4308EA81
:1004C000030807FA05F348EA030801F48173B3F55A
:1004D000817F07D106F2140502F208044FF00103F0
:1004E000A3402B6001F08203822B07D106F2100596
:1004F00002F208044FF00103A3402B60FFE7521CF7
:10050000CCE7331DC3F80080DDF800E001B0704790
:1005100000FCFFFF140008000008080081B000F292
:100520000C02116000F208021368C3F3000202B962
:10053000F8E700F20C02126890B201B07047FFFFBA
:1005400089B0CDF800E0834698B28C46BDF82410FF
:100550000A9E04ACADF80410ADF808002046FFF781
:100560008FFEBDF80800BDF80410644CA34512D1FD
:1005700001256DB2624C2560624D634C2560634D70
:10058000634C2560634D644C2560644D644C25606C
:10059000079C039456E0634CA34512D101256DB22C
:1005A000614C2560614D584C2560614D584C25606B
:1005B000604D594C2560604D594C2560069C039454
:1005C00040E05E4CA34512D101256DB25C4C256024
:1005D0005C4D4D4C25605C4D4D4C25605B4D4E4C4B
:1005E00025605B4D4E4C2560069C03942AE0594CD7
:1005F000A34512D101256DB2574C2560574D424C91
:100600002560574D424C2560564D434C2560564D54
:10061000434C2560069C039414E0544CA34511D12F
:1006200001256DB2524C2560524D374C2560524D1C
:10063000374C2560514D384C2560514D384C256064
:10064000069C0394ADF80410ADF80800304600F0A5
:10065000CBF8BDF80800BDF804100BF1100500241C
:100660002C600BF110052C680C432C600BF10C0571
:1006700000242C6018B140F4806080B2FFE70BF1D9
:100680000C052C6804432C600BF10C060125346822
:1006900065F34D3434600BF10C060125346865F3C5
:1006A000C30434600BF10C060125346865F3820441
:1006B00034600BF1140500242C60039D192465435C
:1006C0004FEA8C04B5FBF4F76424B7FBF4F426017D
:1006D000350964246C433C1B240104F23205642474
:1006E000B5FBF4F404F00F0446EA04040BF108052A
:1006F000A4B22C60DDF800E009B07047003801407A
:1007000038034242F1090000D4000020FFFFFFFF40
:10071000D8000020FFFFFFFFDC000020FFFFFFFFED
:10072000E000002000440040C4034242650900008C
:10073000FFFFFFFFFFFFFFFFFFFFFFFF004800403D
:10074000C803424249090000FFFFFFFFFFFFFFFF10
:10075000FFFFFFFF004C0040CC0342429D09000018
:10076000FFFFFFFFFFFFFFFFFFFFFFFF0050004005
:10077000D003424281090000FFFFFFFFFFFFFFFFA0
:10078000FFFFFFFF81B000230360CB009BB242EA72
:10079000030304689BB244EA03030360051D1314BA
:1007A0001C462B6864F382032B6000F21C050024B6
:1007B0002B6864F3CB232B600124036864F3861356
:1007C000036001B07047FFFF81B0ADF80010014633
:1007D000BDF800000B68C3F3C01202B9FAE70A1DA6
:1007E000106001B07047FFFF81B0CDF800E001223A
:1007F00052B23E490A6000F268010B686FF0006176
:1008000003EA0102144603F00061C90E0B4602F030
:100810000041B1F1004F02D135490A6801E0354984
:100820000A6804F47021090C0E464FF6FF7104EAC1
:1008300001010D4604F44011B1F5401F0DD16FF0D8
:10084000706102EA01010E462A490A686FF0706180
:100850000A4028490A60324616E004F48011B1F5D6
:10086000801F09D14FF00301B140C94302EA0101E1
:1008700041F070610A4607E0610D090105FA01F1D6
:10088000C9430A4042F070622BB1610D090105FABB
:1008900001F10A43FFE704F00041B1F1004F02D13A
:1008A00013490A6001E013490A6040F2000A8146D8
:1008B0004FEA8A0109EB01010968B1F1FF3F10D04D
:1008C00009F134014FEA8A03C91809680A4609EB9D
:1008D0000301096808461146FFF740FC0AF1010AC6
:1008E000E6E7DDF800E001B0704700BF00034242D8
:1008F0001C0001400400014081B0CDF800E0019DE2
:100900002C4610B408B493B28AB201460348FFF7EC
:1009100017FE02B0DDF800E001B07047003801407A
:1009200081B0CDF800E0019D2C4610B408B493B21C
:100930008AB201460348FFF703FE02B0DDF800E08B
:1009400001B070470044004081B0CDF800E081B2B2
:100950000348FFF739FFDDF800E001B0704700BF42
:100960000048004081B0CDF800E081B20348FFF7B5
:100970002BFFDDF800E001B0704700BF00440040ED
:1009800081B0CDF800E081B20348FFF71DFFDDF82C
:1009900000E001B0704700BF0050004081B0CDF8CA
:1009A00000E081B20348FFF70FFFDDF800E001B07F
:1009B000704700BF004C004081B0CDF800E081B22C
:1009C0000348FFF7ABFDDDF800E001B0704700BF62
:1009D0000038004081B0CDF800E081B20348FFF755
:1009E0009DFDDDF800E001B0704700BF0030014020
:1009F00081B0CDF800E081B20348FFF7E5FEDDF8F5
:100A000000E001B0704700BF0038014081B0CDF870
:100A100000E081B20348FFF781FDDDF800E001B09E
:100A2000704700BF003C004081B0CDF800E0019D60
:100A30002C4610B408B493B28AB201460348FFF7BB
:100A40007FFD02B0DDF800E001B0704700480040D3
:100A500081B0CDF800E0044A89B2FFF765FCDDF80B
:100A600000E001B0704700BF1400080081B006B577
:100A70004FEA40024FEA12627F3A44BF4FF0000053
:100A800011E0D2F11F0209D94FEA002141F00041E3
:100A9000D14000284CBF4842084604E000284FF0EF
:100AA000004058BF401EBDE8064001B07047FFFF40
:100AB00081B0002808BF0FE002B54FF09E0202D4BB
:100AC000521E4000FCD580302CBF521C4000400A12
:100AD00040EAC250BDE8024001B0704781B0FAB5AB
:100AE00090EA02064CBF4FF000464FF000064FEA76
:100AF00000214FEA40031B0E12BF41F000414FF0AE
:100B000000002CE0FF2B26D04FEA02244FEA4205DA
:100B10002D0E12BF44F000444FF000001FE0FF2DE7
:100B200019D05B19A1FB0454002C5CBF64005B1E50
:100B3000803424BF5B1C64087E3BDCBF4FF00000A8
:100B40000DE0FF2B07D24FEA142030F4000040EAFA
:100B5000C350304303E0FF27FF0546EA0700BDE826
:100B6000FA4001B07047FFFF83B0CDF800E08DF888
:100B7000040002910B4C0C4B1C600C4C0C4B1C6089
:100B8000012464B20B4B1C601046FFF72DFE029A45
:100B90009DF804100848FFF7F5FDDDF800E003B00C
:100BA000704700BF0D0C0000CC0000200D0A0000B3
:100BB000D0000020BC034242003C004081B0CDF890
:100BC00000E081B20348FFF7A9FCDDF800E001B0C6
:100BD000704700BF0038004081B0CDF800E081B21E
:100BE0000348FFF79BFCDDF800E001B0704700BF51
:100BF0000030014081B0CDF800E04FF0420289B2F0
:100C0000FFF792FBDDF800E001B0704781B0CDF84E
:100C100000E081B20348FFF781FCDDF800E001B09D
:100C2000704700BF003C004001490860704700BFAA
:100C3000B881224201490860704700BF9C8121426F
:100C400001490860704700BF98812142014908604E
:100C5000704700BF8C01224201490860704700BF05
:100C60009401214201490860704700BFA801224257
:100C700001490860704700BFB00122420149086085
:100C8000704700BFAC01224201490860704700BFB5
:100C90009881224201490860704700BFB08122421A
:100CA00001490860704700BFB081224201490860D5
:100CB000704700BF9481224281B010B5904208BFB6
:100CC0002AE040EA02044FEA4404002C08BF23E073
:100CD000440004D1944201D4A41C012C1CE04FEA2E
:100CE00040044FEA1464FF2C0AD14FEA42044FEA51
:100CF0001464FF2C04D14FEAD274B4EBD0340BE06F
:100D0000002A06D4002802DC0024012C04E09042D2
:100D100002E0002848BF8242BDE8104001B07047A1
:100D200083B0CDF800E0029101AB00F00F021A7021
:100D30001A7842F010021A705B1C00221A70002010
:100D40000F4C2468A0470DF1060301AA194610466E
:100D5000022200F0C7F80120094C2468A0470DF1D9
:100D60000604621C1378029A13702278D0B2020132
:100D700090B200F091F8DDF800E003B0704700BFDA
:100D8000BC00002081B0FAB590EA02064CBF4FF0DB
:100D900000464FF00006010243001B0E12BF41F057
:100DA00000414FF000003BE0FF2B35D05FEA02240A
:100DB0005FEA42055FEA156511BF44F000444FF059
:100DC000FF4030432CE0FF2D26D05B1B0020202766
:100DD00064084908A14240EB000028BF091B7F1EA0
:100DE00004D0002918BF4900F4D1B84010F0004FDA
:100DF00004BF4000B3F1010380302CBF5B1C4000F6
:100E00007F33DCBF4FF000000AE0FF2B04D2400A22
:100E100040EAC350304303E0FF27FF0556EA0700CE
:100E2000BDE8FA4001B0704781B0009101460098DA
:100E30000B461C465A1C15460346421C10461A789F
:100E4000227022780AB12B46F3E7084601B07047BA
:100E500081B0CDF800E002B5002802D5FFF706FE0C
:100E600013E04FEA40014FEA11617F393CBF4FF078
:100E700000000AE0D1F11F0105D34FEA002040F045
:100E80000040C84001E00020401EBDE80240DDF8FF
:100E900000E001B07047FFFF81B0CDF800E0FFF740
:100EA00007FE034AFFF71AFEDDF800E001B07047C5
:100EB000ACFFB33D01490860704700BF9C812142EF
:100EC00001490860704700BF9881214202680349C8
:100ED0000A60011D0A6802490A607047C0000020CC
:100EE000C400002084B0CDF800E0ADF80C200190E3
:100EF0000291BDF80C40BDF80C305B1EADF80C3013
:100F00007CB1019B1B78DCB2A0B2084C2468A047DE
:100F1000029B1870029B5B1C0293019B5B1C01935C
:100F2000E7E7DDF800E004B0704700BFC400002030
:100F300000F208010A6801490A607047BC000020FD
:100F400081B0CDF800E00178CCB2A0B2034C2468A7
:100F5000A0470020DDF800E001B07047B800002095
:100F600081B0CDF800E0011D0A680168C8B21146E1
:100F7000034AFFF7F9FD0020DDF800E001B07047FB
:100F8000EC1D000081B0CDF800E0A9E0012905D1F9
:100F900040F220016548FFF72DFE04E040F22001F9
:100FA0006248FFF755FDBBE0012905D140F2080179
:100FB0005F48FFF71FFE04E040F208015C48FFF7BE
:100FC00047FDADE0012905D144F200015948FFF782
:100FD00011FE04E044F200015648FFF739FD9FE09E
:100FE000012905D140F200415148FFF703FE04E01A
:100FF00040F200414E48FFF72BFD91E0012905D159
:1010000040F600014A48FFF7F5FD04E040F6000114
:101010004748FFF71DFD83E0012905D141F200019A
:101020004348FFF7E7FD04E041F200014048FFF7C5
:101030000FFD75E0012905D141F200013D48FFF7A0
:10104000D9FD04E041F200013A48FFF701FD67E0F5
:10105000012905D140F600013648FFF7CBFD04E039
:1010600040F600013348FFF7F3FC59E0012905D1B0
:1010700040F240012F48FFF7BDFD04E040F240017F
:101080002C48FFF7E5FC4BE0012905D140F2200197
:101090002848FFF7AFFD04E040F220012548FFF7A4
:1010A000D7FC3DE0012905D140F240012248FFF77D
:1010B000A1FD04E040F240011F48FFF7C9FC2FE00A
:1010C000012905D140F280011B48FFF793FD04E0A0
:1010D00040F280011848FFF7BBFC21E0012020E02E
:1010E00000283FF453AF01283FF45EAF02283FF4DD
:1010F00069AF03283FF474AF04283FF47FAF05289D
:101100003FF48AAF06283FF495AF0728A0D00828FF
:10111000ACD00928B8D00A28C4D00B28D0D0DDE73D
:101120000020DDF800E001B0704700BF000801407A
:101130000010014000140140000C014081B0CDF8C6
:1011400000E0A9E0012905D140F210016548FFF750
:1011500051FD04E040F210016248FFF779FCBBE06A
:10116000012905D140F204015F48FFF743FD04E087
:1011700040F204015C48FFF76BFCADE0012905D1AA
:1011800042F200015948FFF735FD04E042F2000148
:101190005648FFF75DFC9FE0012905D140F2004170
:1011A0005148FFF727FD04E040F200414E48FFF7A9
:1011B0004FFC91E0012905D140F600014A48FFF7B4
:1011C00019FD04E040F600014748FFF741FC83E0C9
:1011D000012905D141F200014348FFF70BFD04E06E
:1011E00041F200014048FFF733FC75E0012905D1C9
:1011F00040F201013B48FFF7FDFC04E040F2010131
:101200003848FFF725FC67E0012905D140F200418D
:101210003648FFF7EFFC04E040F200413348FFF7A7
:1012200017FC59E0012905D140F200212F48FFF7B2
:10123000E1FC04E040F200212C48FFF709FC4BE000
:10124000012905D140F200112848FFF7D3FC04E042
:1012500040F200112548FFF7FBFB3DE0012905D1D5
:1012600040F240012248FFF7C5FC04E040F2400193
:101270001F48FFF7EDFB2FE0012905D140F2800167
:101280001B48FFF7B7FC04E040F280011848FFF765
:10129000DFFB21E0012020E000283FF453AF0128CC
:1012A0003FF45EAF02283FF469AF03283FF474AF08
:1012B00004283FF47FAF05283FF48AAF06283FF4A7
:1012C00095AF0728A0D00828ACD00928B8D00A28A4
:1012D000C4D00B28D0D0DDE70020DDF800E001B05D
:1012E000704700BF00080140001001400014014099
:1012F000000C014081B0CDF800E0094902B440F291
:10130000000340F2000240F20001FFF709FB01B0C8
:10131000044A05490A600020DDF800E001B070478A
:10132000581E000065090000B800002081B0CDF80B
:1013300000E0094902B440F2000340F2000240F22A
:101340000001FFF7EDFA01B0044A05490A600020E8
:10135000DDF800E001B07047581E0000650900008C
:10136000B800002081B0CDF800E0094902B440F295
:10137000000340F2000240F20001FFF755FB01B00C
:10138000044A05490A600020DDF800E001B070471A
:10139000801D000049090000B800002081B0CDF890
:1013A00000E0094902B440F2000340F2000240F2BA
:1013B0000001FFF7A1FA01B0044A05490A600020C4
:1013C000DDF800E001B07047141D0000F1090000D5
:1013D000B800002081B0CDF800E0011D0A68016866
:1013E000C8B21146034AFFF7BFFB0020DDF800E05A
:1013F00001B07047EC1D000001490860704700BF54
:101400009001214201490860704700BFA881224233
:1014100001490860704700BF80012142014908600E
:10142000704700BFA081224201490860704700BF99
:10143000A481224201490860704700BFB0012242E6
:1014400001490860704700BFB48122420149086029
:10145000704700BF8801224201490860704700BF01
:10146000AC01224201490860704700BFA801224236
:1014700083B0CDF800E001461A480A46FFF71CFC8D
:1014800040F2000000DA012008B1164800E00846EA
:10149000154AFFF777FCFFF7DBFC80B202A9ADF835
:1014A00004000520FFF73CFCBDF8040002AB1978EE
:1014B00001F03001197000F00F0292B21978114357
:1014C00019705A1C01091170591C0978042000F088
:1014D000F7F902A90978052000F0F2F9DDF800E03B
:1014E00003B07047C0F4B343ACFFB33D82B0CDF856
:1014F00000E002460C460020002149B20192019A08
:10150000B2F1FF3F06D1714A11462046FFF78CFC2D
:101510000320D7E0012501AAD21C127802F0800234
:10152000D2B272B101AAD31C1A7882F080021A706A
:101530006A1CD3B22D222270621C1446DEB2A2466F
:1015400001E0A246EEB2019A32B9614A1146504614
:10155000FFF76AFC0020B5E0019AB2F1FF4F06D117
:101560005C4A11465046FFF75FFCF0B2AAE05FFA12
:1015700080F94FFA81F8019A4FF07E50FFF79CFBFB
:1015800040F2000000DD012048B1019A5248FFF707
:10159000A5FA0190A8F101084FFA88F8EBE7019A43
:1015A0004D48FFF789FB40F2000000DC012048B104
:1015B000019A4A48FFF792FA019008F101084FFAA0
:1015C00088F8ECE7019A5200019201AAD21C127825
:1015D0007F3AD0B201AAD31C01221A70019A82402C
:1015E000019201AAD21C127830328AF800200AF146
:1015F0000100B8F1010F06DBB8F1060F03DC054668
:101600005FFA89F103E02E220270451C01210620B9
:101610004FFA88F400B301AAD31C00221A70019A71
:101620009300019AD2180192019A5200019201AAE4
:10163000D21C127830322A706D1C51B9621E52B21F
:1016400053B222B92E222A706D1C0121FFE75CB231
:10165000FFE7401EC0B2DDE7294660B24A1E12789D
:10166000302A01D1491EF9E74A1E12782E2A01D1EB
:10167000491EFFE710B365220A70491C002806DAEC
:101680002D220A70491C424250B243B200E043B2DC
:10169000D8B2DAB2092A07D90A22B0FBF2F2D2B2E2
:1016A00030320A70491CFFE70A23B0FBF3F203FB58
:1016B0001202D2B230320A70481C00E00846002202
:1016C00002700020DDF800E002B070474600002004
:1016D0004A0000204C00002000002041CDCCCC3D31
:1016E000002300240022642A2ED218488018007893
:1016F0002E2801D10124FFE7012C02D15B1CDBB2B3
:10170000FFE7032B1DD9114880180078652802D007
:10171000022C00D010E0181F00B2111A09B20B48B9
:1017200041180A488018007808700848811800207D
:1017300008700220C4B203E0044881180020087039
:10174000FFE7521CD2B2CEE7704700BF5400002022
:1017500081B0CDF800E05FFA81F95FFA82FA0FE01C
:101760005FFA8AF15FFA89F0FFF7E8FC0DE05FFAB3
:101770008AF15FFA89F0FFF705FC06E0012004E03A
:101780000028EDD00128F2D0F8E7DDF800E001B044
:101790007047FFFF82B0CDF800E001A9002008707B
:1017A000491C0020087000200E4C2468A0470DF151
:1017B000060101A80222FFF795FB0120094C2468CD
:1017C000A0470DF106021078010189B2501C007883
:1017D0000009C0B241EA0000FFF75EFBDDF800E05F
:1017E00002B07047BC00002083B0CDF800E08DF857
:1017F000080001A90520FFF793FA9DF8041001F0F5
:10180000CF02D2B28DF804209DF8081001F030010B
:10181000C9B242EA01018DF80410052000F050F829
:10182000DDF800E003B0704783B0CDF800E0024679
:1018300010460D228DF808200A228DF809201FE09D
:10184000FFF77EFB23E002782AB10190FFF778FBD7
:101850000198401CF7E71AE002782AB10190FFF7DF
:101860006FFB0198401CF7E702AA1046FFF768FBE0
:101870000DF109021046FFF763FB08E0062007E0C0
:101880000029DDD00129DED00229E5D0F6E70020CD
:10189000DDF800E003B0704781B0CDF800E003460A
:1018A0000846FFF713FB1846FFF742FB0120034CE5
:1018B0002468A047DDF800E001B07047BC000020BC
:1018C00082B0CDF800E001AB00F00F021A701A7878
:1018D00042F020021A705A1C11700020104C24682B
:1018E000A0470DF1060301AA194610460222FFF790
:1018F000F9FA01200A4C2468A0470DF10604227869
:10190000D0B203019BB2621C12781209D2B243EA30
:10191000020290B2FFF7C0FADDF800E002B07047B3
:10192000BC00002081B0CDF800E011E00846FFF7D0
:1019300019FD16E00846FFF7F9FC12E00846FFF72C
:101940002DFD0EE00846FFF7D5FC0AE0012008E077
:101950000028EBD00128EDD02028EFD03028F1D09E
:10196000F4E7DDF800E001B07047FFFF81B0CDF88B
:1019700000E08B4609E05846FFF7F2FA0AE05846C5
:10198000FFF728FD06E0012004E00028F3D001283D
:10199000F5D0F8E7DDF800E001B0704781B01548F8
:1019A000006840F0010113480160134913480160C9
:1019B00010480168124801400E4801600D48016856
:1019C0006FF4802001400B4801600C4801686FF4FF
:1019D000FE00014009480160064801686FF0A05010
:1019E0000140044801604FF000010648016001B069
:1019F000704700BF001002400000FFF004100240DA
:101A0000FFFFF6FE2C10024081B0CDF800E019492E
:101A10001948FFF741FF4EF67F67C0F2360700BF57
:101A200000BF7F1EFDD100BF00BF00BF002103200B
:101A3000FFF746FF102040F02000FFF7D5FE0F48CB
:101A4000FFF716FD49F6FF67C0F2240700BF00BF8D
:101A50007F1EFDD100BF00BF00BF09480221FFF774
:101A6000E3FE08480221FFF7DFFEDDF800E001B0E9
:101A7000704700BF841F0000C41E000000003042F9
:101A8000180000203500002081B04FF000094FF011
:101A9000000CBDEB0A0F04DCBDEB0B0F01DBD446E1
:101AA000EA464BF8049BBBEB0A0FFAD1BCEB0A0FDA
:101AB00005DDE246D9F800B00BF1040BF1E701B007
:101AC000704702040608FFFF81B0CDF800E0002255
:101AD00002210020FFF73CFE0E4801460020FFF7E0
:101AE00045FF42F280512020FFF71CFF0A480221E7
:101AF000FFF79AFE44F67F77C0F2120700BF00BFDF
:101B00007F1EFDD100BF00BF00BFDDF800E001B0C7
:101B1000704700BF8C1F000000000020FFFFFFFF88
:101B200081B0CDF800E0FFF735FE1149086011499A
:101B3000FFF7DCFCFFF7D4FD0F480121FFF774FE2F
:101B400001210C48FFF770FE0C480221FFF76CFEE4
:101B500049F6FF67C0F224077F1EFDD100BF00BF1A
:101B600000BF00BF00BFDDF800E001B0704700BF5C
:101B700050000020540000203600002041000020CA
:101B800081B01CF8019B0BF8019BBBEB0A0FF8D14D
:101B900001B0704781B0FEE701B0704781B00249E3
:101BA0000248016001B0704740190100C8000020E0
:101BB00000F00EF800F02EFAFFF7F0FF00F0EAF95F
:101BC000FFF782FFFFF720FFFFF7AAFFFCE7FEE722
:101BD00081B0CDF800E0464A464B474C47494BF6AA
:101BE0008030814206D94648006840F002014448EE
:101BF000016011E045F6C050814206D940480068B6
:101C000040F001013E48016006E03D4801686FF088
:101C1000070001403A480160FFF7C0FE3948036001
:101C200039480460394802EA00013948016002F08D
:101C3000010040B119463648006800F00200002853
:101C400000D1F8E700E0194602F4803040B10B46BD
:101C50002F48006800F40030002800D1F8E700E0C9
:101C60000B4602F0805068B12948006840F080516E
:101C7000274801602648006800F00050002800D185
:101C8000F8E7FFE702F0806078B12148006840F093
:101C900080611F48016011461A461D48006800F027
:101CA0000060002800D1F8E701E011461A4601F073
:101CB000807070B11648006840F08071144801606F
:101CC00011461348006800F0007000B9F9E70A46B1
:101CD000FFE70C48006800F00C01900000F00C00D9
:101CE000814200D0F5E7DDF800E001B0704700BFA9
:101CF0008100010502841D00440601004019010015
:101D000000200240041002402C100240FFFF0F0090
:101D100000100240090000000A000000FFFFFFFF62
:101D200000000000000000000000000000000000B3
:101D300000000000000000000000000000000000A3
:101D4000000000000000000018080000180000005B
:101D50000000000000000000000000000000000083
:101D60000000000000000000000000000000000073
:101D7000000000000000000000000000040000005F
:101D80003800000039000000FFFFFFFF00000000E6
:101D90000000000000000000000000000000000043
:101DA0000000000000000000000000000000000033
:101DB00000000000180800001800000000000000EB
:101DC0000000000000000000000000000000000013
:101DD0000000000000000000000000000000000003
:101DE0000000000000000000300014082A0000007D
:101DF0002B0000002C000000FFFFFFFF0000000090
:101E000000000000000000000000000000000000D2
:101E100000000000000000000000000000000000C2
:101E20001808000018080000180800000000000052
:101E300000000000000000000000000000000000A2
:101E40000000000000000000000000000000000092
:101E500000000000001120083500000036000000DE
:101E6000FFFFFFFF00000000000000000000000076
:101E70000000000000000000000000000000000062
:101E80000000000000000000000000001808000032
:101E9000180000000000000000000000000000002A
:101EA0000000000000000000000000000000000032
:101EB0000000000000000000000000000000000022
:101EC00008000008F91300004D1400004114000040
:101ED00065140000591400003514000011140000AE
:101EE00005140000291400001D140000410C00001E
:101EF000350C0000FFFFFFFFFFFFFFFFFFFFFFFFAD
:101F0000FFFFFFFFFFFFFFFFFFFFFFFFFFFFFFFFE1
:101F1000FFFFFFFFFFFFFFFFFFFFFFFFFFFFFFFFD1
:101F2000FFFFFFFF2A2A2A20496E697469616C69E4
:101F30007A696E672E2E2E202A2A2A002A2A20410C
:101F40006E676C65203220697320696E69746961FF
:101F50006C697A6564202A2A0000416E676C6520EE
:101F600069733A200020646567004E614E003000BE
:101F7000494E460000000000010203040102030470
:101F8000060708090D0A00000D0C000007000000FC
:101F90000703000000B5DFF814B0DFF814A0DFF885
:101FA00014C0FFF7EDFD00BD704700BF000000202A
:101FB00050000020241F0000FFFFFFFFFFFFFFFF76
:101FC000FFFFFFFFFFFFFFFFFFFFFFFFFFFFFFFF21
:101FD000FFFFFFFFFFFFFFFFFFFFFFFFFFFFFFFF11
:101FE000FFFFFFFFFFFFFFFFFFFFFFFFFFFFFFFF01
:101FF000FFFFFFFFFFFFFFFFFFFFFFFFFFFFFFFFF1
:10200000FFFFFFFFFFFFFFFFFFFFFFFFFFFFFFFFE0
:10201000FFFFFFFF00B5DFF810B0DFF810A0FFF7FB
:1020200033FD00BD704700BF00000020E400002029
:00000001FF
